{
  "contractName": "Marketplace",
  "abi": [
    {
      "anonymous": false,
      "inputs": [
        {
          "indexed": false,
          "internalType": "uint256",
          "name": "id",
          "type": "uint256"
        },
        {
          "indexed": false,
          "internalType": "string",
          "name": "name",
          "type": "string"
        },
        {
          "indexed": false,
          "internalType": "uint256",
          "name": "price",
          "type": "uint256"
        },
        {
          "indexed": true,
          "internalType": "address",
          "name": "farmer",
          "type": "address"
        }
      ],
      "name": "ProductListed",
      "type": "event"
    },
    {
      "anonymous": false,
      "inputs": [
        {
          "indexed": false,
          "internalType": "uint256",
          "name": "id",
          "type": "uint256"
        },
        {
          "indexed": true,
          "internalType": "address",
          "name": "buyer",
          "type": "address"
        },
        {
          "indexed": true,
          "internalType": "address",
          "name": "farmer",
          "type": "address"
        }
      ],
      "name": "ProductPurchased",
      "type": "event"
    },
    {
      "inputs": [],
      "name": "productCount",
      "outputs": [
        {
          "internalType": "uint256",
          "name": "",
          "type": "uint256"
        }
      ],
      "stateMutability": "view",
      "type": "function",
      "constant": true
    },
    {
      "inputs": [
        {
          "internalType": "uint256",
          "name": "",
          "type": "uint256"
        }
      ],
      "name": "products",
      "outputs": [
        {
          "internalType": "uint256",
          "name": "id",
          "type": "uint256"
        },
        {
          "internalType": "string",
          "name": "name",
          "type": "string"
        },
        {
          "internalType": "uint256",
          "name": "price",
          "type": "uint256"
        },
        {
          "internalType": "address payable",
          "name": "farmer",
          "type": "address"
        },
        {
          "internalType": "bool",
          "name": "sold",
          "type": "bool"
        }
      ],
      "stateMutability": "view",
      "type": "function",
      "constant": true
    },
    {
      "inputs": [
        {
          "internalType": "string",
          "name": "_name",
          "type": "string"
        },
        {
          "internalType": "uint256",
          "name": "_price",
          "type": "uint256"
        }
      ],
      "name": "listProduct",
      "outputs": [],
      "stateMutability": "nonpayable",
      "type": "function"
    },
    {
      "inputs": [
        {
          "internalType": "uint256",
          "name": "_id",
          "type": "uint256"
        }
      ],
      "name": "buyProduct",
      "outputs": [],
      "stateMutability": "payable",
      "type": "function",
      "payable": true
    },
    {
      "inputs": [
        {
          "internalType": "uint256",
          "name": "_id",
          "type": "uint256"
        }
      ],
      "name": "getProduct",
      "outputs": [
        {
          "internalType": "string",
          "name": "",
          "type": "string"
        },
        {
          "internalType": "uint256",
          "name": "",
          "type": "uint256"
        },
        {
          "internalType": "address",
          "name": "",
          "type": "address"
        },
        {
          "internalType": "bool",
          "name": "",
          "type": "bool"
        }
      ],
      "stateMutability": "view",
      "type": "function",
      "constant": true
    }
  ],
  "bytecode": "0x608060405234801561001057600080fd5b506109b5806100206000396000f3fe60806040526004361061004a5760003560e01c80637acc0b201461004f5780638642269e1461008957806389a1b5231461009e578063b9db15b4146100be578063e0f6ef87146100ee575b600080fd5b34801561005b57600080fd5b5061006f61006a3660046106ce565b610110565b6040516100809594939291906108c6565b60405180910390f35b61009c6100973660046106ce565b6101d5565b005b3480156100aa57600080fd5b5061009c6100b9366004610627565b610306565b3480156100ca57600080fd5b506100de6100d93660046106ce565b610445565b6040516100809493929190610731565b3480156100fa57600080fd5b50610103610588565b6040516100809190610894565b60016020819052600091825260409091208054918101805461013190610907565b80601f016020809104026020016040519081016040528092919081815260200182805461015d90610907565b80156101aa5780601f1061017f576101008083540402835291602001916101aa565b820191906000526020600020905b81548152906001019060200180831161018d57829003601f168201915b5050505060028301546003909301549192916001600160a01b0381169150600160a01b900460ff1685565b600081815260016020526040902081158015906101f457506000548211155b6102195760405162461bcd60e51b81526004016102109061076b565b60405180910390fd5b806002015434101561023d5760405162461bcd60e51b8152600401610210906107d2565b6003810154600160a01b900460ff16156102695760405162461bcd60e51b81526004016102109061082f565b60038101546040516001600160a01b03909116903480156108fc02916000818181858888f193505050501580156102a4573d6000803e3d6000fd5b5060038101805460ff60a01b1916600160a01b17908190556040516001600160a01b039091169033907f405b8e92032184041314dcddf305e0d97d13b103d3fa162eb2b1c760760bdc0a906102fa908690610894565b60405180910390a35050565b60008251116103275760405162461bcd60e51b81526004016102109061085d565b600081116103475760405162461bcd60e51b81526004016102109061079b565b60008054908061035683610942565b90915550506040805160a081018252600080548083526020808401878152848601879052336060860152608085018490529183526001808252949092208351815590518051939491936103b19392850192919091019061058e565b5060408281015160028301556060830151600390920180546080909401511515600160a01b0260ff60a01b196001600160a01b039094166001600160a01b03199095169490941792909216929092179055600054905133917f12f74df6387ef2d51265f7b8c12c28c83ba3a6a78ad217f3846ec9c2b1fad92f9161043991908690869061089d565b60405180910390a25050565b60606000806000808511801561045d57506000548511155b6104795760405162461bcd60e51b81526004016102109061076b565b6000858152600160208181526040808420815160a081019092528054825292830180549193928401916104ab90610907565b80601f01602080910402602001604051908101604052809291908181526020018280546104d790610907565b80156105245780601f106104f957610100808354040283529160200191610524565b820191906000526020600020905b81548152906001019060200180831161050757829003601f168201915b505050918352505060028201546020808301919091526003909201546001600160a01b038116604080840191909152600160a01b90910460ff1615156060928301529183015191830151908301516080909301519199909850919650945092505050565b60005481565b82805461059a90610907565b90600052602060002090601f0160209004810192826105bc5760008555610602565b82601f106105d557805160ff1916838001178555610602565b82800160010185558215610602579182015b828111156106025782518255916020019190600101906105e7565b5061060e929150610612565b5090565b5b8082111561060e5760008155600101610613565b60008060408385031215610639578182fd5b823567ffffffffffffffff80821115610650578384fd5b818501915085601f830112610663578384fd5b813560208282111561067757610677610969565b604051601f8301601f191681018201848111828210171561069a5761069a610969565b60405282815284830182018910156106b0578687fd5b82828601838301379182018101959095529694909301359450505050565b6000602082840312156106df578081fd5b5035919050565b60008151808452815b8181101561070b576020818501810151868301820152016106ef565b8181111561071c5782602083870101525b50601f01601f19169290920160200192915050565b60006080825261074460808301876106e6565b6020830195909552506001600160a01b039290921660408301521515606090910152919050565b602080825260169082015275141c9bd91d58dd08191bd95cc81b9bdd08195e1a5cdd60521b604082015260600190565b6020808252601f908201527f5072696365206d7573742062652067726561746572207468616e207a65726f00604082015260600190565b6020808252603d908201527f496e73756666696369656e742066756e647320746f20636f7665722070726f6460408201527f75637420707269636520616e64207472616e73616374696f6e20666565000000606082015260800190565b602080825260149082015273141c9bd91d58dd08185b1c9958591e481cdbdb1960621b604082015260600190565b6020808252601c908201527f50726f64756374206e616d652063616e6e6f7420626520656d70747900000000604082015260600190565b90815260200190565b6000848252606060208301526108b660608301856106e6565b9050826040830152949350505050565b600086825260a060208301526108df60a08301876106e6565b6040830195909552506001600160a01b03929092166060830152151560809091015292915050565b60028104600182168061091b57607f821691505b6020821081141561093c57634e487b7160e01b600052602260045260246000fd5b50919050565b600060001982141561096257634e487b7160e01b81526011600452602481fd5b5060010190565b634e487b7160e01b600052604160045260246000fdfea2646970667358221220cdd71a5ff3e5cd16cfea2a9094f4bdbb711975f5c71936a32e5b21c8e2a44a1764736f6c63430008000033",
  "immutableReferences": {},
  "source": "// SPDX-License-Identifier: MIT\r\npragma solidity ^0.8.0;\r\n\r\ncontract Marketplace {\r\n    struct Product {\r\n        uint id;\r\n        string name;\r\n        uint price;\r\n        address payable farmer;\r\n        bool sold;\r\n    }\r\n\r\n    uint public productCount;\r\n    mapping(uint => Product) public products;\r\n\r\n    // Events\r\n    event ProductListed(uint id, string name, uint price, address indexed farmer);\r\n    event ProductPurchased(uint id, address indexed buyer, address indexed farmer);\r\n\r\n    // List a product by a farmer\r\n    function listProduct(string memory _name, uint _price) public {\r\n        require(bytes(_name).length > 0, \"Product name cannot be empty\");\r\n        require(_price > 0, \"Price must be greater than zero\");\r\n\r\n        productCount++;\r\n        products[productCount] = Product(productCount, _name, _price, payable(msg.sender), false);\r\n        emit ProductListed(productCount, _name, _price, msg.sender);\r\n    }\r\n\r\n    // Buy a product\r\n    function buyProduct(uint _id) public payable {\r\n        Product storage product = products[_id];\r\n        require(_id > 0 && _id <= productCount, \"Product does not exist\");\r\n        // Ensure sufficient funds for product price and transaction fee\r\n        require(msg.value >= product.price, \"Insufficient funds to cover product price and transaction fee\");\r\n        require(!product.sold, \"Product already sold\");\r\n                // Transfer payment to the farmer\r\n        product.farmer.transfer(msg.value);\r\n\r\n        // Mark product as sold\r\n        product.sold = true;\r\n\r\n        emit ProductPurchased(_id, msg.sender, product.farmer);\r\n    }\r\n\r\n    // View product details\r\n    function getProduct(uint _id) public view returns (string memory, uint, address, bool) {\r\n        require(_id > 0 && _id <= productCount, \"Product does not exist\");\r\n        Product memory product = products[_id];\r\n        return (product.name, product.price, product.farmer, product.sold);\r\n    }\r\n}",
  "sourcePath": "/Users/jayant/Downloads/blockchain-marketplace/contracts/Marketplace.sol/Marketplace.sol",
  "compiler": {
    "name": "solc",
    "version": "0.8.0+commit.c7dfd78e.Emscripten.clang"
  },
  "schemaVersion": "3.4.16",
  "updatedAt": "2024-11-21T19:49:50.535Z",
  "networkType": "ethereum",
  "devdoc": {
    "kind": "dev",
    "methods": {},
    "version": 1
  },
  "userdoc": {
    "kind": "user",
    "methods": {},
    "version": 1
  }
}